{
  "contractName": "wahajBridgeGor",
  "abi": [
    {
      "inputs": [
        {
          "internalType": "address",
          "name": "_token",
          "type": "address"
        }
      ],
      "stateMutability": "nonpayable",
      "type": "constructor"
    },
    {
      "anonymous": false,
      "inputs": [
        {
          "indexed": true,
          "internalType": "address",
          "name": "recipient",
          "type": "address"
        },
        {
          "indexed": false,
          "internalType": "uint256",
          "name": "amount",
          "type": "uint256"
        }
      ],
      "name": "Claim",
      "type": "event"
    },
    {
      "anonymous": false,
      "inputs": [
        {
          "indexed": true,
          "internalType": "address",
          "name": "sender",
          "type": "address"
        },
        {
          "indexed": false,
          "internalType": "uint256",
          "name": "amount",
          "type": "uint256"
        },
        {
          "indexed": false,
          "internalType": "uint256",
          "name": "depositID",
          "type": "uint256"
        }
      ],
      "name": "Deposit",
      "type": "event"
    },
    {
      "inputs": [
        {
          "internalType": "uint256",
          "name": "",
          "type": "uint256"
        }
      ],
      "name": "processedWithdrawals",
      "outputs": [
        {
          "internalType": "bool",
          "name": "",
          "type": "bool"
        }
      ],
      "stateMutability": "view",
      "type": "function",
      "constant": true
    },
    {
      "inputs": [],
      "name": "token",
      "outputs": [
        {
          "internalType": "contract IERC20",
          "name": "",
          "type": "address"
        }
      ],
      "stateMutability": "view",
      "type": "function",
      "constant": true
    },
    {
      "inputs": [
        {
          "internalType": "uint256",
          "name": "amount",
          "type": "uint256"
        }
      ],
      "name": "deposit",
      "outputs": [],
      "stateMutability": "nonpayable",
      "type": "function"
    },
    {
      "inputs": [
        {
          "internalType": "address",
          "name": "recipient",
          "type": "address"
        },
        {
          "internalType": "uint256",
          "name": "amount",
          "type": "uint256"
        },
        {
          "internalType": "uint256",
          "name": "withdrawalId",
          "type": "uint256"
        }
      ],
      "name": "claim",
      "outputs": [],
      "stateMutability": "nonpayable",
      "type": "function"
    }
  ],
  "bytecode": "0x608060405234801561001057600080fd5b50604051610a62380380610a62833981810160405281019061003291906100db565b806000806101000a81548173ffffffffffffffffffffffffffffffffffffffff021916908373ffffffffffffffffffffffffffffffffffffffff16021790555050610108565b600080fd5b600073ffffffffffffffffffffffffffffffffffffffff82169050919050565b60006100a88261007d565b9050919050565b6100b88161009d565b81146100c357600080fd5b50565b6000815190506100d5816100af565b92915050565b6000602082840312156100f1576100f0610078565b5b60006100ff848285016100c6565b91505092915050565b61094b806101176000396000f3fe608060405234801561001057600080fd5b506004361061004c5760003560e01c80632bc43fd914610051578063b6b55f251461006d578063dde4d95014610089578063fc0c546a146100b9575b600080fd5b61006b600480360381019061006691906104f0565b6100d7565b005b61008760048036038101906100829190610543565b610293565b005b6100a3600480360381019061009e9190610543565b610413565b6040516100b0919061058b565b60405180910390f35b6100c1610433565b6040516100ce9190610605565b60405180910390f35b6001600082815260200190815260200160002060009054906101000a900460ff1615610138576040517f08c379a000000000000000000000000000000000000000000000000000000000815260040161012f9061067d565b60405180910390fd5b600180600083815260200190815260200160002060006101000a81548160ff02191690831515021790555060008054906101000a900473ffffffffffffffffffffffffffffffffffffffff1673ffffffffffffffffffffffffffffffffffffffff1663a9059cbb84846040518363ffffffff1660e01b81526004016101be9291906106bb565b6020604051808303816000875af11580156101dd573d6000803e3d6000fd5b505050506040513d601f19601f820116820180604052508101906102019190610710565b610240576040517f08c379a000000000000000000000000000000000000000000000000000000000815260040161023790610789565b60405180910390fd5b8273ffffffffffffffffffffffffffffffffffffffff167f47cee97cb7acd717b3c0aa1435d004cd5b3c8c57d70dbceb4e4458bbd60e39d48360405161028691906107a9565b60405180910390a2505050565b600081116102d6576040517f08c379a00000000000000000000000000000000000000000000000000000000081526004016102cd90610810565b60405180910390fd5b60008054906101000a900473ffffffffffffffffffffffffffffffffffffffff1673ffffffffffffffffffffffffffffffffffffffff166323b872dd3330846040518463ffffffff1660e01b815260040161033393929190610830565b6020604051808303816000875af1158015610352573d6000803e3d6000fd5b505050506040513d601f19601f820116820180604052508101906103769190610710565b6103b5576040517f08c379a00000000000000000000000000000000000000000000000000000000081526004016103ac90610789565b60405180910390fd5b3373ffffffffffffffffffffffffffffffffffffffff167f90890809c654f11d6e72a28fa60149770a0d11ec6c92319d6ceb2bb0a4ea1a158283426103fa9190610896565b6040516104089291906108ec565b60405180910390a250565b60016020528060005260406000206000915054906101000a900460ff1681565b60008054906101000a900473ffffffffffffffffffffffffffffffffffffffff1681565b600080fd5b600073ffffffffffffffffffffffffffffffffffffffff82169050919050565b60006104878261045c565b9050919050565b6104978161047c565b81146104a257600080fd5b50565b6000813590506104b48161048e565b92915050565b6000819050919050565b6104cd816104ba565b81146104d857600080fd5b50565b6000813590506104ea816104c4565b92915050565b60008060006060848603121561050957610508610457565b5b6000610517868287016104a5565b9350506020610528868287016104db565b9250506040610539868287016104db565b9150509250925092565b60006020828403121561055957610558610457565b5b6000610567848285016104db565b91505092915050565b60008115159050919050565b61058581610570565b82525050565b60006020820190506105a0600083018461057c565b92915050565b6000819050919050565b60006105cb6105c66105c18461045c565b6105a6565b61045c565b9050919050565b60006105dd826105b0565b9050919050565b60006105ef826105d2565b9050919050565b6105ff816105e4565b82525050565b600060208201905061061a60008301846105f6565b92915050565b600082825260208201905092915050565b7f5769746864726177616c20616c72656164792070726f63657373656400000000600082015250565b6000610667601c83610620565b915061067282610631565b602082019050919050565b600060208201905081810360008301526106968161065a565b9050919050565b6106a68161047c565b82525050565b6106b5816104ba565b82525050565b60006040820190506106d0600083018561069d565b6106dd60208301846106ac565b9392505050565b6106ed81610570565b81146106f857600080fd5b50565b60008151905061070a816106e4565b92915050565b60006020828403121561072657610725610457565b5b6000610734848285016106fb565b91505092915050565b7f5472616e73666572206661696c65640000000000000000000000000000000000600082015250565b6000610773600f83610620565b915061077e8261073d565b602082019050919050565b600060208201905081810360008301526107a281610766565b9050919050565b60006020820190506107be60008301846106ac565b92915050565b7f416d6f756e74206d7573742062652067726561746572207468616e207a65726f600082015250565b60006107fa602083610620565b9150610805826107c4565b602082019050919050565b60006020820190508181036000830152610829816107ed565b9050919050565b6000606082019050610845600083018661069d565b610852602083018561069d565b61085f60408301846106ac565b949350505050565b7f4e487b7100000000000000000000000000000000000000000000000000000000600052601160045260246000fd5b60006108a1826104ba565b91506108ac836104ba565b9250827fffffffffffffffffffffffffffffffffffffffffffffffffffffffffffffffff038211156108e1576108e0610867565b5b828201905092915050565b600060408201905061090160008301856106ac565b61090e60208301846106ac565b939250505056fea2646970667358221220c354905874bbf2c7ebd31c860d0be05c38755648d4598c8749b3916f0725acc264736f6c634300080d0033",
  "immutableReferences": {},
  "source": "pragma solidity ^0.8.0;\n\n\ninterface IERC20 {\n    /**\n     * @dev Emitted when `value` tokens are moved from one account (`from`) to\n     * another (`to`).\n     *\n     * Note that `value` may be zero.\n     */\n    event Transfer(address indexed from, address indexed to, uint256 value);\n\n    /**\n     * @dev Emitted when the allowance of a `spender` for an `owner` is set by\n     * a call to {approve}. `value` is the new allowance.\n     */\n    event Approval(address indexed owner, address indexed spender, uint256 value);\n\n    /**\n     * @dev Returns the value of tokens in existence.\n     */\n    function totalSupply() external view returns (uint256);\n\n    /**\n     * @dev Returns the value of tokens owned by `account`.\n     */\n    function balanceOf(address account) external view returns (uint256);\n\n    /**\n     * @dev Moves a `value` amount of tokens from the caller's account to `to`.\n     *\n     * Returns a boolean value indicating whether the operation succeeded.\n     *\n     * Emits a {Transfer} event.\n     */\n    function transfer(address to, uint256 value) external returns (bool);\n\n    /**\n     * @dev Returns the remaining number of tokens that `spender` will be\n     * allowed to spend on behalf of `owner` through {transferFrom}. This is\n     * zero by default.\n     *\n     * This value changes when {approve} or {transferFrom} are called.\n     */\n    function allowance(address owner, address spender) external view returns (uint256);\n\n    /**\n     * @dev Sets a `value` amount of tokens as the allowance of `spender` over the\n     * caller's tokens.\n     *\n     * Returns a boolean value indicating whether the operation succeeded.\n     *\n     * IMPORTANT: Beware that changing an allowance with this method brings the risk\n     * that someone may use both the old and the new allowance by unfortunate\n     * transaction ordering. One possible solution to mitigate this race\n     * condition is to first reduce the spender's allowance to 0 and set the\n     * desired value afterwards:\n     * https://github.com/ethereum/EIPs/issues/20#issuecomment-263524729\n     *\n     * Emits an {Approval} event.\n     */\n    function approve(address spender, uint256 value) external returns (bool);\n\n    /**\n     * @dev Moves a `value` amount of tokens from `from` to `to` using the\n     * allowance mechanism. `value` is then deducted from the caller's\n     * allowance.\n     *\n     * Returns a boolean value indicating whether the operation succeeded.\n     *\n     * Emits a {Transfer} event.\n     */\n    function transferFrom(address from, address to, uint256 value) external returns (bool);\n}\n\ncontract wahajBridgeGor {\n    IERC20 public token;\n    mapping(uint256 => bool) public processedWithdrawals;\n\n    event Deposit(address indexed sender, uint256 amount, uint256 depositID);\n    event Claim(address indexed recipient, uint256 amount);\n\n    constructor(address _token) {\n        token = IERC20(_token);\n    }\n\n    \n    function deposit(uint256 amount) external {\n        require(amount > 0, \"Amount must be greater than zero\");\n        require(token.transferFrom(msg.sender, address(this), amount), \"Transfer failed\");\n\n        emit Deposit(msg.sender, amount, block.timestamp+amount);\n    }\n\n   \n    function claim(address recipient, uint256 amount, uint256 withdrawalId) external  {\n        require(!processedWithdrawals[withdrawalId], \"Withdrawal already processed\");\n        processedWithdrawals[withdrawalId] = true;\n        \n        require(token.transfer(recipient, amount), \"Transfer failed\");\n\n        emit Claim(recipient, amount);\n    }\n}",
  "sourcePath": "/Users/wahajhaider/Desktop/GBC/lab1_AdvancedSmartContract/assignment1/contracts/wahajBridgeGor.sol",
  "compiler": {
    "name": "solc",
    "version": "0.8.13+commit.abaa5c0e.Emscripten.clang"
  },
  "schemaVersion": "3.4.16",
  "updatedAt": "2023-09-29T05:10:33.818Z",
  "networkType": "ethereum",
  "devdoc": {
    "kind": "dev",
    "methods": {},
    "version": 1
  },
  "userdoc": {
    "kind": "user",
    "methods": {},
    "version": 1
  }
}