{
  "contractName": "EtherBorrowLend",
  "abi": [
    {
      "inputs": [],
      "stateMutability": "nonpayable",
      "type": "constructor"
    },
    {
      "inputs": [],
      "name": "contractBalance",
      "outputs": [
        {
          "internalType": "uint256",
          "name": "",
          "type": "uint256"
        }
      ],
      "stateMutability": "view",
      "type": "function"
    },
    {
      "inputs": [],
      "name": "owner",
      "outputs": [
        {
          "internalType": "address",
          "name": "",
          "type": "address"
        }
      ],
      "stateMutability": "view",
      "type": "function"
    },
    {
      "inputs": [],
      "name": "getContractBalance",
      "outputs": [
        {
          "internalType": "uint256",
          "name": "",
          "type": "uint256"
        }
      ],
      "stateMutability": "view",
      "type": "function"
    },
    {
      "inputs": [],
      "name": "deposit",
      "outputs": [],
      "stateMutability": "payable",
      "type": "function"
    },
    {
      "inputs": [
        {
          "internalType": "uint256",
          "name": "amount",
          "type": "uint256"
        }
      ],
      "name": "borrow",
      "outputs": [],
      "stateMutability": "payable",
      "type": "function"
    },
    {
      "inputs": [],
      "name": "repay",
      "outputs": [],
      "stateMutability": "payable",
      "type": "function"
    },
    {
      "inputs": [],
      "name": "withdrawFunds",
      "outputs": [],
      "stateMutability": "nonpayable",
      "type": "function"
    }
  ],
  "bytecode": "0x608060405234801561000f575f80fd5b50335f806101000a81548173ffffffffffffffffffffffffffffffffffffffff021916908373ffffffffffffffffffffffffffffffffffffffff160217905550610ae98061005c5f395ff3fe60806040526004361061006f575f3560e01c80638b7afe2e1161004d5780638b7afe2e146100bd5780638da5cb5b146100e7578063c5ebeaec14610111578063d0e30db01461012d5761006f565b806324600fc314610073578063402d8883146100895780636f9fb98a14610093575b5f80fd5b34801561007e575f80fd5b50610087610137565b005b610091610229565b005b34801561009e575f80fd5b506100a76102c8565b6040516100b4919061052d565b60405180910390f35b3480156100c8575f80fd5b506100d16102cf565b6040516100de919061052d565b60405180910390f35b3480156100f2575f80fd5b506100fb6102d5565b6040516101089190610585565b60405180910390f35b61012b600480360381019061012691906105cc565b6102f8565b005b61013561042c565b005b5f8054906101000a900473ffffffffffffffffffffffffffffffffffffffff1673ffffffffffffffffffffffffffffffffffffffff163373ffffffffffffffffffffffffffffffffffffffff16146101c4576040517f08c379a00000000000000000000000000000000000000000000000000000000081526004016101bb90610677565b60405180910390fd5b5f8054906101000a900473ffffffffffffffffffffffffffffffffffffffff1673ffffffffffffffffffffffffffffffffffffffff166108fc4790811502906040515f60405180830381858888f19350505050158015610226573d5f803e3d5ffd5b50565b5f341161026b576040517f08c379a000000000000000000000000000000000000000000000000000000000815260040161026290610705565b60405180910390fd5b473411156102ae576040517f08c379a00000000000000000000000000000000000000000000000000000000081526004016102a590610793565b60405180910390fd5b3460015f8282546102bf91906107de565b92505081905550565b5f47905090565b60015481565b5f8054906101000a900473ffffffffffffffffffffffffffffffffffffffff1681565b5f811161033a576040517f08c379a000000000000000000000000000000000000000000000000000000000815260040161033190610881565b60405180910390fd5b600a60015461034991906108cc565b81111561038b576040517f08c379a00000000000000000000000000000000000000000000000000000000081526004016103829061096c565b60405180910390fd5b8034146103cd576040517f08c379a00000000000000000000000000000000000000000000000000000000081526004016103c4906109fa565b60405180910390fd5b3373ffffffffffffffffffffffffffffffffffffffff166108fc8290811502906040515f60405180830381858888f19350505050158015610410573d5f803e3d5ffd5b508060015f8282546104229190610a18565b9250508190555050565b5f8054906101000a900473ffffffffffffffffffffffffffffffffffffffff1673ffffffffffffffffffffffffffffffffffffffff163373ffffffffffffffffffffffffffffffffffffffff16146104b9576040517f08c379a00000000000000000000000000000000000000000000000000000000081526004016104b090610677565b60405180910390fd5b5f34116104fb576040517f08c379a00000000000000000000000000000000000000000000000000000000081526004016104f290610a95565b60405180910390fd5b3460015f82825461050c91906107de565b92505081905550565b5f819050919050565b61052781610515565b82525050565b5f6020820190506105405f83018461051e565b92915050565b5f73ffffffffffffffffffffffffffffffffffffffff82169050919050565b5f61056f82610546565b9050919050565b61057f81610565565b82525050565b5f6020820190506105985f830184610576565b92915050565b5f80fd5b6105ab81610515565b81146105b5575f80fd5b50565b5f813590506105c6816105a2565b92915050565b5f602082840312156105e1576105e061059e565b5b5f6105ee848285016105b8565b91505092915050565b5f82825260208201905092915050565b7f4f6e6c7920746865206f776e65722063616e20706572666f726d2074686973205f8201527f616374696f6e0000000000000000000000000000000000000000000000000000602082015250565b5f6106616026836105f7565b915061066c82610607565b604082019050919050565b5f6020820190508181035f83015261068e81610655565b9050919050565b7f596f75206d7573742073656e6420457468657220746f207265706179207468655f8201527f206c6f616e000000000000000000000000000000000000000000000000000000602082015250565b5f6106ef6025836105f7565b91506106fa82610695565b604082019050919050565b5f6020820190508181035f83015261071c816106e3565b9050919050565b7f436f6e74726163742062616c616e636520697320696e73756666696369656e745f8201527f20746f20726570617920746865206c6f616e0000000000000000000000000000602082015250565b5f61077d6032836105f7565b915061078882610723565b604082019050919050565b5f6020820190508181035f8301526107aa81610771565b9050919050565b7f4e487b71000000000000000000000000000000000000000000000000000000005f52601160045260245ffd5b5f6107e882610515565b91506107f383610515565b925082820190508082111561080b5761080a6107b1565b5b92915050565b7f426f72726f77656420616d6f756e74206d7573742062652067726561746572205f8201527f7468616e207a65726f0000000000000000000000000000000000000000000000602082015250565b5f61086b6029836105f7565b915061087682610811565b604082019050919050565b5f6020820190508181035f8301526108988161085f565b9050919050565b7f4e487b71000000000000000000000000000000000000000000000000000000005f52601260045260245ffd5b5f6108d682610515565b91506108e183610515565b9250826108f1576108f061089f565b5b828204905092915050565b7f596f752063616e20626f72726f7720757020746f20313025206f6620746865205f8201527f636f6e747261637427732076616c756500000000000000000000000000000000602082015250565b5f6109566030836105f7565b9150610961826108fc565b604082019050919050565b5f6020820190508181035f8301526109838161094a565b9050919050565b7f596f75206d7573742073656e642065786163746c7920746865207265717565735f8201527f74656420616d6f756e74206f6620457468657200000000000000000000000000602082015250565b5f6109e46033836105f7565b91506109ef8261098a565b604082019050919050565b5f6020820190508181035f830152610a11816109d8565b9050919050565b5f610a2282610515565b9150610a2d83610515565b9250828203905081811115610a4557610a446107b1565b5b92915050565b7f596f75206d7573742073656e6420457468657220746f206465706f73697400005f82015250565b5f610a7f601e836105f7565b9150610a8a82610a4b565b602082019050919050565b5f6020820190508181035f830152610aac81610a73565b905091905056fea2646970667358221220312f16b90d6f6b0df30590c287c301e215c6e7b2d245a10507e75740dace468f64736f6c63430008150033",
  "immutableReferences": {},
  "source": "// SPDX-License-Identifier: MIT\npragma solidity ^0.8.0;\n\ncontract EtherBorrowLend {\n    address public owner;\n    uint256 public contractBalance;\n\n    constructor() {\n        owner = msg.sender;\n    }\n\n    modifier onlyOwner() {\n        require(msg.sender == owner, \"Only the owner can perform this action\");\n        _;\n    }\n\n    function getContractBalance() public view returns (uint256) {\n        return address(this).balance;\n    }\n\n    function deposit() public payable onlyOwner {\n        // Accept Ether deposit from the owner\n        require(msg.value > 0, \"You must send Ether to deposit\");\n        contractBalance += msg.value;\n    }\n\n    function borrow(uint256 amount) public payable {\n        require(amount > 0, \"Borrowed amount must be greater than zero\");\n        require(amount <= contractBalance / 10, \"You can borrow up to 10% of the contract's value\");\n        require(msg.value == amount, \"You must send exactly the requested amount of Ether\");\n\n        // Transfer Ether to the borrower\n        payable(msg.sender).transfer(amount);\n\n        // Update contract balance\n        contractBalance -= amount;\n    }\n\n    function repay() public payable {\n        require(msg.value > 0, \"You must send Ether to repay the loan\");\n        require(msg.value <= address(this).balance, \"Contract balance is insufficient to repay the loan\");\n\n        // Update contract balance\n        contractBalance += msg.value;\n    }\n\n    function withdrawFunds() public onlyOwner {\n        // Only the owner can withdraw funds from the contract\n        payable(owner).transfer(address(this).balance);\n    }\n}",
  "sourcePath": "/Users/wahajhaider/Desktop/GBC/lab1_AdvancedSmartContract/truffle/contracts/lab3.sol",
  "compiler": {
    "name": "solc",
    "version": "0.8.21+commit.d9974bed.Emscripten.clang"
  },
  "schemaVersion": "3.4.16",
  "updatedAt": "2023-09-23T02:34:44.571Z",
  "devdoc": {
    "kind": "dev",
    "methods": {},
    "version": 1
  },
  "userdoc": {
    "kind": "user",
    "methods": {},
    "version": 1
  }
}